{
  "_format": "hh-sol-artifact-1",
  "contractName": "WeatherOracle",
  "sourceName": "contracts/WeatherOracle.sol",
  "abi": [
    {
      "inputs": [
        {
          "internalType": "address",
          "name": "_link",
          "type": "address"
        },
        {
          "internalType": "address",
          "name": "_oracle",
          "type": "address"
        },
        {
          "internalType": "bytes32",
          "name": "_jobId",
          "type": "bytes32"
        },
        {
          "internalType": "uint256",
          "name": "_fee",
          "type": "uint256"
        }
      ],
      "stateMutability": "nonpayable",
      "type": "constructor"
    },
    {
      "anonymous": false,
      "inputs": [
        {
          "indexed": true,
          "internalType": "bytes32",
          "name": "id",
          "type": "bytes32"
        }
      ],
      "name": "ChainlinkCancelled",
      "type": "event"
    },
    {
      "anonymous": false,
      "inputs": [
        {
          "indexed": true,
          "internalType": "bytes32",
          "name": "id",
          "type": "bytes32"
        }
      ],
      "name": "ChainlinkFulfilled",
      "type": "event"
    },
    {
      "anonymous": false,
      "inputs": [
        {
          "indexed": true,
          "internalType": "bytes32",
          "name": "id",
          "type": "bytes32"
        }
      ],
      "name": "ChainlinkRequested",
      "type": "event"
    },
    {
      "anonymous": false,
      "inputs": [
        {
          "indexed": true,
          "internalType": "address",
          "name": "previousOwner",
          "type": "address"
        },
        {
          "indexed": true,
          "internalType": "address",
          "name": "newOwner",
          "type": "address"
        }
      ],
      "name": "OwnershipTransferred",
      "type": "event"
    },
    {
      "anonymous": false,
      "inputs": [
        {
          "indexed": true,
          "internalType": "bytes32",
          "name": "requestId",
          "type": "bytes32"
        },
        {
          "indexed": false,
          "internalType": "string",
          "name": "city",
          "type": "string"
        },
        {
          "indexed": false,
          "internalType": "int256",
          "name": "temperature",
          "type": "int256"
        },
        {
          "indexed": false,
          "internalType": "string",
          "name": "description",
          "type": "string"
        },
        {
          "indexed": false,
          "internalType": "uint256",
          "name": "timestamp",
          "type": "uint256"
        }
      ],
      "name": "WeatherReported",
      "type": "event"
    },
    {
      "anonymous": false,
      "inputs": [
        {
          "indexed": true,
          "internalType": "bytes32",
          "name": "requestId",
          "type": "bytes32"
        },
        {
          "indexed": false,
          "internalType": "string",
          "name": "city",
          "type": "string"
        },
        {
          "indexed": true,
          "internalType": "address",
          "name": "requester",
          "type": "address"
        }
      ],
      "name": "WeatherRequested",
      "type": "event"
    },
    {
      "inputs": [],
      "name": "chainlinkFee",
      "outputs": [
        {
          "internalType": "uint256",
          "name": "",
          "type": "uint256"
        }
      ],
      "stateMutability": "view",
      "type": "function"
    },
    {
      "inputs": [],
      "name": "chainlinkOracle",
      "outputs": [
        {
          "internalType": "address",
          "name": "",
          "type": "address"
        }
      ],
      "stateMutability": "view",
      "type": "function"
    },
    {
      "inputs": [],
      "name": "chainlinkToken",
      "outputs": [
        {
          "internalType": "address",
          "name": "",
          "type": "address"
        }
      ],
      "stateMutability": "view",
      "type": "function"
    },
    {
      "inputs": [
        {
          "internalType": "bytes32",
          "name": "_requestId",
          "type": "bytes32"
        },
        {
          "internalType": "int256",
          "name": "_temperature",
          "type": "int256"
        }
      ],
      "name": "fulfill",
      "outputs": [],
      "stateMutability": "nonpayable",
      "type": "function"
    },
    {
      "inputs": [
        {
          "internalType": "bytes32",
          "name": "_requestId",
          "type": "bytes32"
        }
      ],
      "name": "getWeatherReport",
      "outputs": [
        {
          "components": [
            {
              "internalType": "string",
              "name": "city",
              "type": "string"
            },
            {
              "internalType": "int256",
              "name": "temperature",
              "type": "int256"
            },
            {
              "internalType": "string",
              "name": "description",
              "type": "string"
            },
            {
              "internalType": "uint256",
              "name": "timestamp",
              "type": "uint256"
            },
            {
              "internalType": "address",
              "name": "requester",
              "type": "address"
            }
          ],
          "internalType": "struct WeatherOracle.WeatherReport",
          "name": "",
          "type": "tuple"
        }
      ],
      "stateMutability": "view",
      "type": "function"
    },
    {
      "inputs": [],
      "name": "jobId",
      "outputs": [
        {
          "internalType": "bytes32",
          "name": "",
          "type": "bytes32"
        }
      ],
      "stateMutability": "view",
      "type": "function"
    },
    {
      "inputs": [],
      "name": "openWeatherApiKey",
      "outputs": [
        {
          "internalType": "string",
          "name": "",
          "type": "string"
        }
      ],
      "stateMutability": "view",
      "type": "function"
    },
    {
      "inputs": [],
      "name": "owner",
      "outputs": [
        {
          "internalType": "address",
          "name": "",
          "type": "address"
        }
      ],
      "stateMutability": "view",
      "type": "function"
    },
    {
      "inputs": [],
      "name": "renounceOwnership",
      "outputs": [],
      "stateMutability": "nonpayable",
      "type": "function"
    },
    {
      "inputs": [
        {
          "internalType": "string",
          "name": "_city",
          "type": "string"
        }
      ],
      "name": "requestWeather",
      "outputs": [
        {
          "internalType": "bytes32",
          "name": "requestId",
          "type": "bytes32"
        }
      ],
      "stateMutability": "payable",
      "type": "function"
    },
    {
      "inputs": [
        {
          "internalType": "string",
          "name": "_apiKey",
          "type": "string"
        }
      ],
      "name": "setApiKey",
      "outputs": [],
      "stateMutability": "nonpayable",
      "type": "function"
    },
    {
      "inputs": [
        {
          "internalType": "uint256",
          "name": "_fee",
          "type": "uint256"
        }
      ],
      "name": "setChainlinkFee",
      "outputs": [],
      "stateMutability": "nonpayable",
      "type": "function"
    },
    {
      "inputs": [
        {
          "internalType": "bytes32",
          "name": "_jobId",
          "type": "bytes32"
        }
      ],
      "name": "setJobId",
      "outputs": [],
      "stateMutability": "nonpayable",
      "type": "function"
    },
    {
      "inputs": [
        {
          "internalType": "address",
          "name": "_oracle",
          "type": "address"
        }
      ],
      "name": "setOracle",
      "outputs": [],
      "stateMutability": "nonpayable",
      "type": "function"
    },
    {
      "inputs": [
        {
          "internalType": "address",
          "name": "newOwner",
          "type": "address"
        }
      ],
      "name": "transferOwnership",
      "outputs": [],
      "stateMutability": "nonpayable",
      "type": "function"
    },
    {
      "inputs": [
        {
          "internalType": "bytes32",
          "name": "",
          "type": "bytes32"
        }
      ],
      "name": "weatherReports",
      "outputs": [
        {
          "internalType": "string",
          "name": "city",
          "type": "string"
        },
        {
          "internalType": "int256",
          "name": "temperature",
          "type": "int256"
        },
        {
          "internalType": "string",
          "name": "description",
          "type": "string"
        },
        {
          "internalType": "uint256",
          "name": "timestamp",
          "type": "uint256"
        },
        {
          "internalType": "address",
          "name": "requester",
          "type": "address"
        }
      ],
      "stateMutability": "view",
      "type": "function"
    },
    {
      "inputs": [],
      "name": "withdrawLink",
      "outputs": [],
      "stateMutability": "nonpayable",
      "type": "function"
    },
    {
      "stateMutability": "payable",
      "type": "receive"
    }
  ],
  "bytecode": "0x608060405260016004553480156200001657600080fd5b50604051620020f7380380620020f7833981016040819052620000399162000128565b6200004433620000b9565b600280546001600160a01b0319166001600160a01b038616179055600380546001600160a01b0319166001600160a01b038516179055600b80546001600160a01b039586166001600160a01b031991821617909155600c805494909516931692909217909255600d91909155600a5562000170565b600680546001600160a01b038381166001600160a01b0319831681179093556040519116919082907f8be0079c531659141344cd1fd0a4f28419497f9722a3daafe3b4186f6b6457e090600090a35050565b80516001600160a01b03811681146200012357600080fd5b919050565b600080600080608085870312156200013f57600080fd5b6200014a856200010b565b93506200015a602086016200010b565b6040860151606090960151949790965092505050565b611f7780620001806000396000f3fe6080604052600436106101025760003560e01c80638dc654a211610095578063c2939d9711610064578063c2939d97146102ac578063d6911ac5146102c2578063ef06e72c146102e2578063f10ecc6514610302578063f2fde38b1461032257600080fd5b80638dc654a214610226578063a284673f1461023b578063bda71d041461025b578063c247afe41461027b57600080fd5b8063715018a6116100d1578063715018a6146101a95780637ac98be1146101be5780637adbf973146101d45780638da5cb5b146101f457600080fd5b80630638c0e61461010e5780631829ca521461013957806320bfb7451461015a578063508954f81461018757600080fd5b3661010957005b600080fd5b34801561011a57600080fd5b50610123610342565b604051610130919061186c565b60405180910390f35b61014c610147366004611895565b6103d0565b604051908152602001610130565b34801561016657600080fd5b5061017a610175366004611946565b61069d565b604051610130919061195f565b34801561019357600080fd5b506101a76101a2366004611946565b610842565b005b3480156101b557600080fd5b506101a761084f565b3480156101ca57600080fd5b5061014c600a5481565b3480156101e057600080fd5b506101a76101ef3660046119ce565b610863565b34801561020057600080fd5b506006546001600160a01b03165b6040516001600160a01b039091168152602001610130565b34801561023257600080fd5b506101a761089b565b34801561024757600080fd5b506101a7610256366004611946565b6109d6565b34801561026757600080fd5b506101a76102763660046119f7565b6109e3565b34801561028757600080fd5b5061029b610296366004611946565b610d99565b604051610130959493929190611a19565b3480156102b857600080fd5b5061014c600d5481565b3480156102ce57600080fd5b506101a76102dd366004611895565b610ee1565b3480156102ee57600080fd5b50600c5461020e906001600160a01b031681565b34801561030e57600080fd5b50600b5461020e906001600160a01b031681565b34801561032e57600080fd5b506101a761033d3660046119ce565b610ef9565b600e805461034f90611a67565b80601f016020809104026020016040519081016040528092919081815260200182805461037b90611a67565b80156103c85780601f1061039d576101008083540402835291602001916103c8565b820191906000526020600020905b8154815290600101906020018083116103ab57829003601f168201915b505050505081565b600a54600b546040516370a0823160e01b8152306004820152600092916001600160a01b0316906370a0823190602401602060405180830381865afa15801561041d573d6000803e3d6000fd5b505050506040513d601f19601f820116820180604052508101906104419190611a9b565b10156104b35760405162461bcd60e51b815260206004820152603660248201527f496e73756666696369656e74204c494e4b3a2066756e64207468697320636f6e60448201527574726163742077697468204c494e4b20746f6b656e7360501b60648201526084015b60405180910390fd5b60008251116105045760405162461bcd60e51b815260206004820152601960248201527f43697479206e616d652063616e6e6f7420626520656d7074790000000000000060448201526064016104aa565b600061051a600d543063bda71d0460e01b610f6f565b905060008360405160200161052f9190611ab4565b6040516020818303038152906040529050600081600e604051602001610556929190611b14565b60408051601f19818403018152828201909152600382526219d95d60ea1b6020830152915061058790849083610f94565b6105d9604051806040016040528060048152602001630e0c2e8d60e31b8152506040518060400160405280600981526020016806d61696e2c74656d760bc1b81525085610f949092919063ffffffff16565b60408051808201909152600581526474696d657360d81b60208201526106029084906064610fb7565b600c54600a5461061d916001600160a01b0316908590610fd5565b60008181526008602052604090209094506106388682611c07565b506000848152600960205260409081902080546001600160a01b03191633908117909155905185907f57b7f15c3d8e2616844c1a30ad34cd61e5d36ac0f425bc9439bc614fa2ad2fbd9061068d90899061186c565b60405180910390a3505050919050565b6106d86040518060a001604052806060815260200160008152602001606081526020016000815260200160006001600160a01b031681525090565b60008281526007602052604090819020815160a0810190925280548290829061070090611a67565b80601f016020809104026020016040519081016040528092919081815260200182805461072c90611a67565b80156107795780601f1061074e57610100808354040283529160200191610779565b820191906000526020600020905b81548152906001019060200180831161075c57829003601f168201915b505050505081526020016001820154815260200160028201805461079c90611a67565b80601f01602080910402602001604051908101604052809291908181526020018280546107c890611a67565b80156108155780601f106107ea57610100808354040283529160200191610815565b820191906000526020600020905b8154815290600101906020018083116107f857829003601f168201915b5050509183525050600382015460208201526004909101546001600160a01b031660409091015292915050565b61084a611068565b600d55565b610857611068565b61086160006110c2565b565b61086b611068565b600c80546001600160a01b03929092166001600160a01b0319928316811790915560038054909216179055565b50565b6108a3611068565b600b546040516370a0823160e01b81523060048201526001600160a01b0390911690819063a9059cbb90339083906370a0823190602401602060405180830381865afa1580156108f7573d6000803e3d6000fd5b505050506040513d601f19601f8201168201806040525081019061091b9190611a9b565b6040516001600160e01b031960e085901b1681526001600160a01b03909216600483015260248201526044016020604051808303816000875af1158015610966573d6000803e3d6000fd5b505050506040513d601f19601f8201168201806040525081019061098a9190611cc7565b6108985760405162461bcd60e51b815260206004820152601760248201527f556e61626c6520746f207472616e73666572204c494e4b00000000000000000060448201526064016104aa565b6109de611068565b600a55565b60008281526005602052604090205482906001600160a01b03163314610a5c5760405162461bcd60e51b815260206004820152602860248201527f536f75726365206d75737420626520746865206f7261636c65206f6620746865604482015267081c995c5d595cdd60c21b60648201526084016104aa565b60008181526005602052604080822080546001600160a01b03191690555182917f7cc135e0cebb02c3480ae5d74d377283180a2601f8f644edf7987b009316c63a91a260008381526008602052604081208054610ab890611a67565b80601f0160208091040260200160405190810160405280929190818152602001828054610ae490611a67565b8015610b315780601f10610b0657610100808354040283529160200191610b31565b820191906000526020600020905b815481529060010190602001808311610b1457829003601f168201915b50505060008781526009602052604090205483519394506001600160a01b03169215159150610bb090505760405162461bcd60e51b8152602060048201526024808201527f5265717565737420616c72656164792066756c66696c6c6564206f7220696e76604482015263185b1a5960e21b60648201526084016104aa565b60606000851215610be05750604080518082019091526008815267467265657a696e6760c01b6020820152610c7d565b6105dc851215610c0b575060408051808201909152600481526310dbdb1960e21b6020820152610c7d565b6109c4851215610c365750604080518082019091526004815263135a5b1960e21b6020820152610c7d565b610dac851215610c6157506040805180820190915260048152635761726d60e01b6020820152610c7d565b50604080518082019091526003815262121bdd60ea1b60208201525b6040805160a08101825284815260208082018890528183018490524260608301526001600160a01b0385166080830152600089815260079091529190912081518291908190610ccc9082611c07565b506020820151600182015560408201516002820190610ceb9082611c07565b5060608201516003820155608090910151600490910180546001600160a01b0319166001600160a01b0390921691909117905560405187907f2e401731ceb81f2aaa55c615a658acc8ec0c47a497b4853a4df9b94f8b887f2990610d569087908a9087904290611ce9565b60405180910390a26000878152600860205260408120610d759161178e565b505050600093845250506009602052506040902080546001600160a01b0319169055565b600760205260009081526040902080548190610db490611a67565b80601f0160208091040260200160405190810160405280929190818152602001828054610de090611a67565b8015610e2d5780601f10610e0257610100808354040283529160200191610e2d565b820191906000526020600020905b815481529060010190602001808311610e1057829003601f168201915b505050505090806001015490806002018054610e4890611a67565b80601f0160208091040260200160405190810160405280929190818152602001828054610e7490611a67565b8015610ec15780601f10610e9657610100808354040283529160200191610ec1565b820191906000526020600020905b815481529060010190602001808311610ea457829003601f168201915b5050505060038301546004909301549192916001600160a01b0316905085565b610ee9611068565b600e610ef58282611c07565b5050565b610f01611068565b6001600160a01b038116610f665760405162461bcd60e51b815260206004820152602660248201527f4f776e61626c653a206e6577206f776e657220697320746865207a65726f206160448201526564647265737360d01b60648201526084016104aa565b610898816110c2565b610f776117c8565b610f7f6117c8565b610f8b81868686611114565b95945050505050565b6080830151610fa3908361115a565b6080830151610fb2908261115a565b505050565b6080830151610fc6908361115a565b6080830151610fb29082611171565b600454600090610fe6816001611d3c565b600455835160408086015160808701515191516000936320214ca360e11b9361101e9386938493923092918a91600191602401611d4f565b60408051601f198184030181529190526020810180516001600160e01b03166001600160e01b031990931692909217909152905061105e868386846111d1565b9695505050505050565b6006546001600160a01b031633146108615760405162461bcd60e51b815260206004820181905260248201527f4f776e61626c653a2063616c6c6572206973206e6f7420746865206f776e657260448201526064016104aa565b600680546001600160a01b038381166001600160a01b0319831681179093556040519116919082907f8be0079c531659141344cd1fd0a4f28419497f9722a3daafe3b4186f6b6457e090600090a35050565b61111c6117c8565b61112c856080015161010061132f565b50508284526001600160a01b03821660208501526001600160e01b031981166040850152835b949350505050565b611167826003835161139a565b610fb282826114af565b67ffffffffffffffff1981121561118c57610ef582826114dd565b67ffffffffffffffff8113156111a657610ef5828261151f565b600081126111ba57610ef58260008361139a565b610ef58260016111cc84600019611db7565b61139a565b6040516bffffffffffffffffffffffff193060601b1660208201526034810184905260009060540160408051808303601f1901815282825280516020918201206000818152600590925291812080546001600160a01b0319166001600160a01b038a1617905590925082917fb5e6e01e79f91267dc17b4e6314d5d4d03593d2ceee0fbb452b750bd70ea5af99190a2600254604051630200057560e51b81526001600160a01b0390911690634000aea09061129490889087908790600401611dde565b6020604051808303816000875af11580156112b3573d6000803e3d6000fd5b505050506040513d601f19601f820116820180604052508101906112d79190611cc7565b6111525760405162461bcd60e51b815260206004820152602360248201527f756e61626c6520746f207472616e73666572416e6443616c6c20746f206f7261604482015262636c6560e81b60648201526084016104aa565b60408051808201909152606081526000602082015261134f602083611e05565b156113775761135f602083611e05565b61136a906020611e27565b6113749083611d3c565b91505b506020808301829052604080518085526000815283019091019052815b92915050565b60178167ffffffffffffffff16116113c5576113bf8360e0600585901b168317611542565b50505050565b60ff8167ffffffffffffffff1611611403576113ec836018611fe0600586901b1617611542565b506113bf8367ffffffffffffffff83166001611567565b61ffff8167ffffffffffffffff16116114425761142b836019611fe0600586901b1617611542565b506113bf8367ffffffffffffffff83166002611567565b63ffffffff8167ffffffffffffffff16116114835761146c83601a611fe0600586901b1617611542565b506113bf8367ffffffffffffffff83166004611567565b61149883601b611fe0600586901b1617611542565b506113bf8367ffffffffffffffff83166008611567565b6040805180820190915260608152600060208201526114d68384600001515184855161158d565b9392505050565b6114e88260c3611542565b50610ef5826114f983600019611db7565b60405160200161150b91815260200190565b604051602081830303815290604052611677565b61152a8260c2611542565b50610ef5828260405160200161150b91815260200190565b6040805180820190915260608152600060208201526114d68384600001515184611684565b6040805180820190915260608152600060208201526111528485600001515185856116df565b60408051808201909152606081526000602082015282518211156115b057600080fd5b60208501516115bf8386611d3c565b11156115f2576115f2856115e2876020015187866115dd9190611d3c565b611760565b6115ed906002611e3a565b611777565b6000808651805187602083010193508088870111156116115787860182525b505050602084015b602084106116515780518252611630602083611d3c565b915061163d602082611d3c565b905061164a602085611e27565b9350611619565b51815160001960208690036101000a019081169019919091161790525083949350505050565b611167826002835161139a565b604080518082019091526060815260006020820152836020015183106116b9576116b984856020015160026115ed9190611e3a565b83518051602085830101848153508085036116d5576001810182525b5093949350505050565b60408051808201909152606081526000602082015260208501516117038584611d3c565b111561171757611717856115e28685611d3c565b6000600161172784610100611f35565b6117319190611e27565b90508551838682010185831982511617815250805184870111156117555783860181525b509495945050505050565b600081831115611771575081611394565b50919050565b8151611783838361132f565b506113bf83826114af565b50805461179a90611a67565b6000825580601f106117aa575050565b601f0160209004906000526020600020908101906108989190611803565b6040805160a0810182526000808252602080830182905282840182905260608084018390528451808601909552845283015290608082015290565b5b808211156118185760008155600101611804565b5090565b60005b8381101561183757818101518382015260200161181f565b50506000910152565b6000815180845261185881602086016020860161181c565b601f01601f19169290920160200192915050565b6020815260006114d66020830184611840565b634e487b7160e01b600052604160045260246000fd5b6000602082840312156118a757600080fd5b813567ffffffffffffffff808211156118bf57600080fd5b818401915084601f8301126118d357600080fd5b8135818111156118e5576118e561187f565b604051601f8201601f19908116603f0116810190838211818310171561190d5761190d61187f565b8160405282815287602084870101111561192657600080fd5b826020860160208301376000928101602001929092525095945050505050565b60006020828403121561195857600080fd5b5035919050565b602081526000825160a0602084015261197b60c0840182611840565b9050602084015160408401526040840151601f198483030160608501526119a28282611840565b6060860151608086810191909152909501516001600160a01b031660a090940193909352509192915050565b6000602082840312156119e057600080fd5b81356001600160a01b03811681146114d657600080fd5b60008060408385031215611a0a57600080fd5b50508035926020909101359150565b60a081526000611a2c60a0830188611840565b8660208401528281036040840152611a448187611840565b606084019590955250506001600160a01b03919091166080909101529392505050565b600181811c90821680611a7b57607f821691505b60208210810361177157634e487b7160e01b600052602260045260246000fd5b600060208284031215611aad57600080fd5b5051919050565b7f68747470733a2f2f6170692e6f70656e776561746865726d61702e6f72672f648152716174612f322e352f776561746865723f713d60701b602082015260008251611b0781603285016020870161181c565b9190910160320192915050565b600083516020611b27828583890161181c565b8184019150662661707069643d60c81b8252600760008654611b4881611a67565b60018281168015611b605760018114611b7957611ba9565b60ff198416888701528215158302880186019450611ba9565b8a6000528660002060005b84811015611b9f5781548a8201890152908301908801611b84565b5050858389010194505b50929a9950505050505050505050565b601f821115610fb257600081815260208120601f850160051c81016020861015611be05750805b601f850160051c820191505b81811015611bff57828155600101611bec565b505050505050565b815167ffffffffffffffff811115611c2157611c2161187f565b611c3581611c2f8454611a67565b84611bb9565b602080601f831160018114611c6a5760008415611c525750858301515b600019600386901b1c1916600185901b178555611bff565b600085815260208120601f198616915b82811015611c9957888601518255948401946001909101908401611c7a565b5085821015611cb75787850151600019600388901b60f8161c191681555b5050505050600190811b01905550565b600060208284031215611cd957600080fd5b815180151581146114d657600080fd5b608081526000611cfc6080830187611840565b8560208401528281036040840152611d148186611840565b91505082606083015295945050505050565b634e487b7160e01b600052601160045260246000fd5b8082018082111561139457611394611d26565b6001600160a01b0389811682526020820189905260408201889052861660608201526001600160e01b03198516608082015260a0810184905260c0810183905261010060e08201819052600090611da883820185611840565b9b9a5050505050505050505050565b8181036000831280158383131683831282161715611dd757611dd7611d26565b5092915050565b60018060a01b0384168152826020820152606060408201526000610f8b6060830184611840565b600082611e2257634e487b7160e01b600052601260045260246000fd5b500690565b8181038181111561139457611394611d26565b808202811582820484141761139457611394611d26565b600181815b80851115611e8c578160001904821115611e7257611e72611d26565b80851615611e7f57918102915b93841c9390800290611e56565b509250929050565b600082611ea357506001611394565b81611eb057506000611394565b8160018114611ec65760028114611ed057611eec565b6001915050611394565b60ff841115611ee157611ee1611d26565b50506001821b611394565b5060208310610133831016604e8410600b8410161715611f0f575081810a611394565b611f198383611e51565b8060001904821115611f2d57611f2d611d26565b029392505050565b60006114d68383611e9456fea26469706673582212203a4f15ba4a4eae7a23715e59bd2d8038e91a33e53045692ed7e11c15dfb7bc8164736f6c63430008130033",
  "linkReferences": {},
  "deployedLinkReferences": {}
}